{
  "contractName": "Gamble",
  "abi": [
    {
      "constant": true,
      "inputs": [
        {
          "name": "",
          "type": "address"
        }
      ],
      "name": "player_ETH",
      "outputs": [
        {
          "name": "",
          "type": "uint256"
        }
      ],
      "payable": false,
      "stateMutability": "view",
      "type": "function"
    },
    {
      "constant": false,
      "inputs": [],
      "name": "renounceOwnership",
      "outputs": [],
      "payable": false,
      "stateMutability": "nonpayable",
      "type": "function"
    },
    {
      "constant": true,
      "inputs": [],
      "name": "returnRate",
      "outputs": [
        {
          "name": "",
          "type": "uint256"
        }
      ],
      "payable": false,
      "stateMutability": "view",
      "type": "function"
    },
    {
      "constant": false,
      "inputs": [],
      "name": "owner",
      "outputs": [
        {
          "name": "",
          "type": "address"
        }
      ],
      "payable": false,
      "stateMutability": "nonpayable",
      "type": "function"
    },
    {
      "constant": false,
      "inputs": [],
      "name": "isOwner",
      "outputs": [
        {
          "name": "",
          "type": "bool"
        }
      ],
      "payable": false,
      "stateMutability": "nonpayable",
      "type": "function"
    },
    {
      "constant": true,
      "inputs": [],
      "name": "firstPlacePlayer",
      "outputs": [
        {
          "name": "",
          "type": "address"
        }
      ],
      "payable": false,
      "stateMutability": "view",
      "type": "function"
    },
    {
      "constant": false,
      "inputs": [
        {
          "name": "newOwner",
          "type": "address"
        }
      ],
      "name": "transferOwnership",
      "outputs": [],
      "payable": false,
      "stateMutability": "nonpayable",
      "type": "function"
    },
    {
      "inputs": [],
      "payable": false,
      "stateMutability": "nonpayable",
      "type": "constructor"
    },
    {
      "payable": true,
      "stateMutability": "payable",
      "type": "fallback"
    },
    {
      "anonymous": false,
      "inputs": [
        {
          "indexed": false,
          "name": "fileName",
          "type": "string"
        },
        {
          "indexed": false,
          "name": "lineNumber",
          "type": "uint256"
        }
      ],
      "name": "__CoverageGamble",
      "type": "event"
    },
    {
      "anonymous": false,
      "inputs": [
        {
          "indexed": false,
          "name": "fileName",
          "type": "string"
        },
        {
          "indexed": false,
          "name": "fnId",
          "type": "uint256"
        }
      ],
      "name": "__FunctionCoverageGamble",
      "type": "event"
    },
    {
      "anonymous": false,
      "inputs": [
        {
          "indexed": false,
          "name": "fileName",
          "type": "string"
        },
        {
          "indexed": false,
          "name": "statementId",
          "type": "uint256"
        }
      ],
      "name": "__StatementCoverageGamble",
      "type": "event"
    },
    {
      "anonymous": false,
      "inputs": [
        {
          "indexed": false,
          "name": "fileName",
          "type": "string"
        },
        {
          "indexed": false,
          "name": "branchId",
          "type": "uint256"
        },
        {
          "indexed": false,
          "name": "locationIdx",
          "type": "uint256"
        }
      ],
      "name": "__BranchCoverageGamble",
      "type": "event"
    },
    {
      "anonymous": false,
      "inputs": [
        {
          "indexed": false,
          "name": "fileName",
          "type": "string"
        },
        {
          "indexed": false,
          "name": "branchId",
          "type": "uint256"
        }
      ],
      "name": "__AssertPreCoverageGamble",
      "type": "event"
    },
    {
      "anonymous": false,
      "inputs": [
        {
          "indexed": false,
          "name": "fileName",
          "type": "string"
        },
        {
          "indexed": false,
          "name": "branchId",
          "type": "uint256"
        }
      ],
      "name": "__AssertPostCoverageGamble",
      "type": "event"
    },
    {
      "anonymous": false,
      "inputs": [
        {
          "indexed": true,
          "name": "add",
          "type": "address"
        },
        {
          "indexed": false,
          "name": "amount",
          "type": "uint256"
        }
      ],
      "name": "win",
      "type": "event"
    },
    {
      "anonymous": false,
      "inputs": [
        {
          "indexed": true,
          "name": "add",
          "type": "address"
        },
        {
          "indexed": false,
          "name": "amount",
          "type": "uint256"
        }
      ],
      "name": "lost",
      "type": "event"
    },
    {
      "anonymous": false,
      "inputs": [
        {
          "indexed": false,
          "name": "fileName",
          "type": "string"
        },
        {
          "indexed": false,
          "name": "lineNumber",
          "type": "uint256"
        }
      ],
      "name": "__CoverageLeaderboard",
      "type": "event"
    },
    {
      "anonymous": false,
      "inputs": [
        {
          "indexed": false,
          "name": "fileName",
          "type": "string"
        },
        {
          "indexed": false,
          "name": "fnId",
          "type": "uint256"
        }
      ],
      "name": "__FunctionCoverageLeaderboard",
      "type": "event"
    },
    {
      "anonymous": false,
      "inputs": [
        {
          "indexed": false,
          "name": "fileName",
          "type": "string"
        },
        {
          "indexed": false,
          "name": "statementId",
          "type": "uint256"
        }
      ],
      "name": "__StatementCoverageLeaderboard",
      "type": "event"
    },
    {
      "anonymous": false,
      "inputs": [
        {
          "indexed": false,
          "name": "fileName",
          "type": "string"
        },
        {
          "indexed": false,
          "name": "branchId",
          "type": "uint256"
        },
        {
          "indexed": false,
          "name": "locationIdx",
          "type": "uint256"
        }
      ],
      "name": "__BranchCoverageLeaderboard",
      "type": "event"
    },
    {
      "anonymous": false,
      "inputs": [
        {
          "indexed": false,
          "name": "fileName",
          "type": "string"
        },
        {
          "indexed": false,
          "name": "branchId",
          "type": "uint256"
        }
      ],
      "name": "__AssertPreCoverageLeaderboard",
      "type": "event"
    },
    {
      "anonymous": false,
      "inputs": [
        {
          "indexed": false,
          "name": "fileName",
          "type": "string"
        },
        {
          "indexed": false,
          "name": "branchId",
          "type": "uint256"
        }
      ],
      "name": "__AssertPostCoverageLeaderboard",
      "type": "event"
    },
    {
      "anonymous": false,
      "inputs": [
        {
          "indexed": true,
          "name": "previousOwner",
          "type": "address"
        },
        {
          "indexed": true,
          "name": "newOwner",
          "type": "address"
        }
      ],
      "name": "OwnershipTransferred",
      "type": "event"
    },
    {
      "constant": false,
      "inputs": [],
      "name": "getBalance",
      "outputs": [
        {
          "name": "",
          "type": "uint256"
        }
      ],
      "payable": false,
      "stateMutability": "nonpayable",
      "type": "function"
    },
    {
      "constant": false,
      "inputs": [
        {
          "name": "_returnRate",
          "type": "uint256"
        }
      ],
      "name": "setReturnRate",
      "outputs": [],
      "payable": false,
      "stateMutability": "nonpayable",
      "type": "function"
    },
    {
      "constant": false,
      "inputs": [],
      "name": "wannaPlayAGame",
      "outputs": [],
      "payable": true,
      "stateMutability": "payable",
      "type": "function"
    },
    {
      "constant": false,
      "inputs": [],
      "name": "getETH",
      "outputs": [],
      "payable": false,
      "stateMutability": "nonpayable",
      "type": "function"
    }
  ],
  "bytecode": "0x60806040526000600360006101000a81548173ffffffffffffffffffffffffffffffffffffffff021916908373ffffffffffffffffffffffffffffffffffffffff16021790555034801561005257600080fd5b50336000806101000a81548173ffffffffffffffffffffffffffffffffffffffff021916908373ffffffffffffffffffffffffffffffffffffffff1602179055506000809054906101000a900473ffffffffffffffffffffffffffffffffffffffff1673ffffffffffffffffffffffffffffffffffffffff16600073ffffffffffffffffffffffffffffffffffffffff167f8be0079c531659141344cd1fd0a4f28419497f9722a3daafe3b4186f6b6457e060405160405180910390a37fff5953b5cf97b9739dbff8b9ed8680c4194e2639ec6fa262ed7cbb5357d82ef460016040518080602001838152602001828103825260508152602001806127fd605091396060019250505060405180910390a17f6c4f8a7ff8a81703071f681796a21a1ecbaf1c78e59a8d1755d188ccc5d9c94b600d6040518080602001838152602001828103825260508152602001806127fd605091396060019250505060405180910390a17ff7ba09ba40bbc1d9113bf421e94c0b30d545bdc94cd3cf1f540e7c1905333c3660016040518080602001838152602001828103825260508152602001806127fd605091396060019250505060405180910390a160146004819055506125db806102226000396000f3fe60806040526004361061009c5760003560e01c8063715018a611610064578063715018a6146101de5780637c2ffbb3146101f55780638da5cb5b146102205780638f32d59b14610277578063ca555678146102a6578063f2fde38b146102fd5761009c565b806312065fe0146100f257806314f6c3be1461011d5780632f9999e714610134578063616329c81461016f578063705f613d146101d4575b7fff5953b5cf97b9739dbff8b9ed8680c4194e2639ec6fa262ed7cbb5357d82ef460026040518080602001838152602001828103825260508152602001806124c1605091396060019250505060405180910390a1005b3480156100fe57600080fd5b5061010761034e565b6040518082815260200191505060405180910390f35b34801561012957600080fd5b50610132610469565b005b34801561014057600080fd5b5061016d6004803603602081101561015757600080fd5b810190808035906020019092919050505061063f565b005b34801561017b57600080fd5b506101be6004803603602081101561019257600080fd5b81019080803573ffffffffffffffffffffffffffffffffffffffff1690602001909291905050506107bf565b6040518082815260200191505060405180910390f35b6101dc6107d7565b005b3480156101ea57600080fd5b506101f3611178565b005b34801561020157600080fd5b5061020a6112b1565b6040518082815260200191505060405180910390f35b34801561022c57600080fd5b506102356112b7565b604051808273ffffffffffffffffffffffffffffffffffffffff1673ffffffffffffffffffffffffffffffffffffffff16815260200191505060405180910390f35b34801561028357600080fd5b5061028c6112e0565b604051808215151515815260200191505060405180910390f35b3480156102b257600080fd5b506102bb611337565b604051808273ffffffffffffffffffffffffffffffffffffffff1673ffffffffffffffffffffffffffffffffffffffff16815260200191505060405180910390f35b34801561030957600080fd5b5061034c6004803603602081101561032057600080fd5b81019080803573ffffffffffffffffffffffffffffffffffffffff16906020019092919050505061135d565b005b60007fff5953b5cf97b9739dbff8b9ed8680c4194e2639ec6fa262ed7cbb5357d82ef460036040518080602001838152602001828103825260508152602001806124c1605091396060019250505060405180910390a17f6c4f8a7ff8a81703071f681796a21a1ecbaf1c78e59a8d1755d188ccc5d9c94b60136040518080602001838152602001828103825260508152602001806124c1605091396060019250505060405180910390a17ff7ba09ba40bbc1d9113bf421e94c0b30d545bdc94cd3cf1f540e7c1905333c3660026040518080602001838152602001828103825260508152602001806124c1605091396060019250505060405180910390a13073ffffffffffffffffffffffffffffffffffffffff1631905090565b6104716112e0565b6104e3576040517f08c379a00000000000000000000000000000000000000000000000000000000081526004018080602001828103825260208152602001807f4f776e61626c653a2063616c6c6572206973206e6f7420746865206f776e657281525060200191505060405180910390fd5b7fff5953b5cf97b9739dbff8b9ed8680c4194e2639ec6fa262ed7cbb5357d82ef460076040518080602001838152602001828103825260508152602001806124c1605091396060019250505060405180910390a17f6c4f8a7ff8a81703071f681796a21a1ecbaf1c78e59a8d1755d188ccc5d9c94b602d6040518080602001838152602001828103825260508152602001806124c1605091396060019250505060405180910390a17ff7ba09ba40bbc1d9113bf421e94c0b30d545bdc94cd3cf1f540e7c1905333c36600d6040518080602001838152602001828103825260508152602001806124c1605091396060019250505060405180910390a13373ffffffffffffffffffffffffffffffffffffffff166108fc3073ffffffffffffffffffffffffffffffffffffffff16319081150290604051600060405180830381858888f1935050505015801561063c573d6000803e3d6000fd5b50565b6106476112e0565b6106b9576040517f08c379a00000000000000000000000000000000000000000000000000000000081526004018080602001828103825260208152602001807f4f776e61626c653a2063616c6c6572206973206e6f7420746865206f776e657281525060200191505060405180910390fd5b7fff5953b5cf97b9739dbff8b9ed8680c4194e2639ec6fa262ed7cbb5357d82ef460046040518080602001838152602001828103825260508152602001806124c1605091396060019250505060405180910390a17f6c4f8a7ff8a81703071f681796a21a1ecbaf1c78e59a8d1755d188ccc5d9c94b60176040518080602001838152602001828103825260508152602001806124c1605091396060019250505060405180910390a17ff7ba09ba40bbc1d9113bf421e94c0b30d545bdc94cd3cf1f540e7c1905333c3660036040518080602001838152602001828103825260508152602001806124c1605091396060019250505060405180910390a18060048190555050565b60026020528060005260406000206000915090505481565b7fff5953b5cf97b9739dbff8b9ed8680c4194e2639ec6fa262ed7cbb5357d82ef460056040518080602001838152602001828103825260508152602001806124c1605091396060019250505060405180910390a17f6c4f8a7ff8a81703071f681796a21a1ecbaf1c78e59a8d1755d188ccc5d9c94b601b6040518080602001838152602001828103825260508152602001806124c1605091396060019250505060405180910390a17ff7ba09ba40bbc1d9113bf421e94c0b30d545bdc94cd3cf1f540e7c1905333c3660046040518080602001838152602001828103825260508152602001806124c1605091396060019250505060405180910390a16000600454600a34816108e257fe5b040290507f6c4f8a7ff8a81703071f681796a21a1ecbaf1c78e59a8d1755d188ccc5d9c94b601c6040518080602001838152602001828103825260508152602001806124c1605091396060019250505060405180910390a17f7e5ac9d9129743c0c9341d4a95f1b6f1fb552e9299e590642368b4d83176fbe060016040518080602001838152602001828103825260508152602001806124c1605091396060019250505060405180910390a17ff7ba09ba40bbc1d9113bf421e94c0b30d545bdc94cd3cf1f540e7c1905333c3660056040518080602001838152602001828103825260508152602001806124c1605091396060019250505060405180910390a1803073ffffffffffffffffffffffffffffffffffffffff163111610a51576040517f08c379a00000000000000000000000000000000000000000000000000000000081526004018080602001828103825260248152602001806125376024913960400191505060405180910390fd5b7fb6c2af87bb3d9311d9b1ee71dbd20c55aa16c7dd774cfc363d9cdd408957055560016040518080602001838152602001828103825260508152602001806124c1605091396060019250505060405180910390a17f6c4f8a7ff8a81703071f681796a21a1ecbaf1c78e59a8d1755d188ccc5d9c94b601d6040518080602001838152602001828103825260508152602001806124c1605091396060019250505060405180910390a17f7e5ac9d9129743c0c9341d4a95f1b6f1fb552e9299e590642368b4d83176fbe060026040518080602001838152602001828103825260508152602001806124c1605091396060019250505060405180910390a17ff7ba09ba40bbc1d9113bf421e94c0b30d545bdc94cd3cf1f540e7c1905333c3660066040518080602001838152602001828103825260508152602001806124c1605091396060019250505060405180910390a1671bc16d674ec80000341015610c1f576040517f08c379a00000000000000000000000000000000000000000000000000000000081526004018080602001828103825260208152602001807f4920646f6e277420706c617920776974682074686520706f6f7221204279652181525060200191505060405180910390fd5b7fb6c2af87bb3d9311d9b1ee71dbd20c55aa16c7dd774cfc363d9cdd408957055560026040518080602001838152602001828103825260508152602001806124c1605091396060019250505060405180910390a17f6c4f8a7ff8a81703071f681796a21a1ecbaf1c78e59a8d1755d188ccc5d9c94b601f6040518080602001838152602001828103825260508152602001806124c1605091396060019250505060405180910390a17ff7ba09ba40bbc1d9113bf421e94c0b30d545bdc94cd3cf1f540e7c1905333c3660076040518080602001838152602001828103825260508152602001806124c1605091396060019250505060405180910390a1610d236113e3565b15611021577fa5ebb543d856d69a61d292d051dabf17911dd13c3dfe2d33da9ee53e8c7c0e91600360006040518080602001848152602001838152602001828103825260508152602001806124c160509139606001935050505060405180910390a17f6c4f8a7ff8a81703071f681796a21a1ecbaf1c78e59a8d1755d188ccc5d9c94b60206040518080602001838152602001828103825260508152602001806124c1605091396060019250505060405180910390a17ff7ba09ba40bbc1d9113bf421e94c0b30d545bdc94cd3cf1f540e7c1905333c3660086040518080602001838152602001828103825260508152602001806124c1605091396060019250505060405180910390a1610e373382611502565b7f6c4f8a7ff8a81703071f681796a21a1ecbaf1c78e59a8d1755d188ccc5d9c94b60216040518080602001838152602001828103825260508152602001806124c1605091396060019250505060405180910390a17ff7ba09ba40bbc1d9113bf421e94c0b30d545bdc94cd3cf1f540e7c1905333c3660096040518080602001838152602001828103825260508152602001806124c1605091396060019250505060405180910390a13373ffffffffffffffffffffffffffffffffffffffff166108fc829081150290604051600060405180830381858888f19350505050158015610f25573d6000803e3d6000fd5b507f6c4f8a7ff8a81703071f681796a21a1ecbaf1c78e59a8d1755d188ccc5d9c94b60226040518080602001838152602001828103825260508152602001806124c1605091396060019250505060405180910390a17ff7ba09ba40bbc1d9113bf421e94c0b30d545bdc94cd3cf1f540e7c1905333c36600a6040518080602001838152602001828103825260508152602001806124c1605091396060019250505060405180910390a13373ffffffffffffffffffffffffffffffffffffffff167fee6ab4a69c0c10149c7f1824119194692e8d5331b15fea821af9940fb60944be826040518082815260200191505060405180910390a2611175565b7fa5ebb543d856d69a61d292d051dabf17911dd13c3dfe2d33da9ee53e8c7c0e91600360016040518080602001848152602001838152602001828103825260508152602001806124c160509139606001935050505060405180910390a17f6c4f8a7ff8a81703071f681796a21a1ecbaf1c78e59a8d1755d188ccc5d9c94b60246040518080602001838152602001828103825260508152602001806124c1605091396060019250505060405180910390a17ff7ba09ba40bbc1d9113bf421e94c0b30d545bdc94cd3cf1f540e7c1905333c36600b6040518080602001838152602001828103825260508152602001806124c1605091396060019250505060405180910390a13373ffffffffffffffffffffffffffffffffffffffff167f6d553dd1ad18661af9fbf74413b77042a5f759fb0f6eed540eec9852cf7b1deb826040518082815260200191505060405180910390a25b50565b6111806112e0565b6111f2576040517f08c379a00000000000000000000000000000000000000000000000000000000081526004018080602001828103825260208152602001807f4f776e61626c653a2063616c6c6572206973206e6f7420746865206f776e657281525060200191505060405180910390fd5b600073ffffffffffffffffffffffffffffffffffffffff166000809054906101000a900473ffffffffffffffffffffffffffffffffffffffff1673ffffffffffffffffffffffffffffffffffffffff167f8be0079c531659141344cd1fd0a4f28419497f9722a3daafe3b4186f6b6457e060405160405180910390a360008060006101000a81548173ffffffffffffffffffffffffffffffffffffffff021916908373ffffffffffffffffffffffffffffffffffffffff160217905550565b60045481565b60008060009054906101000a900473ffffffffffffffffffffffffffffffffffffffff16905090565b60008060009054906101000a900473ffffffffffffffffffffffffffffffffffffffff1673ffffffffffffffffffffffffffffffffffffffff163373ffffffffffffffffffffffffffffffffffffffff1614905090565b600360009054906101000a900473ffffffffffffffffffffffffffffffffffffffff1681565b6113656112e0565b6113d7576040517f08c379a00000000000000000000000000000000000000000000000000000000081526004018080602001828103825260208152602001807f4f776e61626c653a2063616c6c6572206973206e6f7420746865206f776e657281525060200191505060405180910390fd5b6113e081611982565b50565b60007fff5953b5cf97b9739dbff8b9ed8680c4194e2639ec6fa262ed7cbb5357d82ef460066040518080602001838152602001828103825260508152602001806124c1605091396060019250505060405180910390a17f6c4f8a7ff8a81703071f681796a21a1ecbaf1c78e59a8d1755d188ccc5d9c94b60296040518080602001838152602001828103825260508152602001806124c1605091396060019250505060405180910390a17ff7ba09ba40bbc1d9113bf421e94c0b30d545bdc94cd3cf1f540e7c1905333c36600c6040518080602001838152602001828103825260508152602001806124c1605091396060019250505060405180910390a16000600242816114ed57fe5b06146114fa5760006114fd565b60015b905090565b7fd18a373c89f13da742c7ea2eddfc8e3af6c8f3f85dbc0ab370c5a4fa2304e8db600260405180806020018381526020018281038252605581526020018061255b605591396060019250505060405180910390a17fb019756b0b3fad7dcb989f72c9fb009b532528659d912fe268d34dfe339a04a7601460405180806020018381526020018281038252605581526020018061255b605591396060019250505060405180910390a17f658c89c6444337203fe9b18818d8f1527b98e5daa8fcb20a42484c000aaada30600660405180806020018381526020018281038252605581526020018061255b605591396060019250505060405180910390a161160782611ac6565b61177b577ff338c7cb8a3bed69401ca351cb57d7512e7d162f8de7dc422f9fd2363ee12a3d6002600060405180806020018481526020018381526020018281038252605581526020018061255b60559139606001935050505060405180910390a17fb019756b0b3fad7dcb989f72c9fb009b532528659d912fe268d34dfe339a04a7601560405180806020018381526020018281038252605581526020018061255b605591396060019250505060405180910390a17f658c89c6444337203fe9b18818d8f1527b98e5daa8fcb20a42484c000aaada30600760405180806020018381526020018281038252605581526020018061255b605591396060019250505060405180910390a160018290806001815401808255809150509060018203906000526020600020016000909192909190916101000a81548173ffffffffffffffffffffffffffffffffffffffff021916908373ffffffffffffffffffffffffffffffffffffffff160217905550506117d9565b7ff338c7cb8a3bed69401ca351cb57d7512e7d162f8de7dc422f9fd2363ee12a3d6002600160405180806020018481526020018381526020018281038252605581526020018061255b60559139606001935050505060405180910390a15b7fb019756b0b3fad7dcb989f72c9fb009b532528659d912fe268d34dfe339a04a7601760405180806020018381526020018281038252605581526020018061255b605591396060019250505060405180910390a17f658c89c6444337203fe9b18818d8f1527b98e5daa8fcb20a42484c000aaada30600860405180806020018381526020018281038252605581526020018061255b605591396060019250505060405180910390a180600260008473ffffffffffffffffffffffffffffffffffffffff1673ffffffffffffffffffffffffffffffffffffffff168152602001908152602001600020600082825401925050819055507fb019756b0b3fad7dcb989f72c9fb009b532528659d912fe268d34dfe339a04a7601860405180806020018381526020018281038252605581526020018061255b605591396060019250505060405180910390a17f658c89c6444337203fe9b18818d8f1527b98e5daa8fcb20a42484c000aaada30600960405180806020018381526020018281038252605581526020018061255b605591396060019250505060405180910390a161197e611f16565b5050565b600073ffffffffffffffffffffffffffffffffffffffff168173ffffffffffffffffffffffffffffffffffffffff161415611a08576040517f08c379a00000000000000000000000000000000000000000000000000000000081526004018080602001828103825260268152602001806125116026913960400191505060405180910390fd5b8073ffffffffffffffffffffffffffffffffffffffff166000809054906101000a900473ffffffffffffffffffffffffffffffffffffffff1673ffffffffffffffffffffffffffffffffffffffff167f8be0079c531659141344cd1fd0a4f28419497f9722a3daafe3b4186f6b6457e060405160405180910390a3806000806101000a81548173ffffffffffffffffffffffffffffffffffffffff021916908373ffffffffffffffffffffffffffffffffffffffff16021790555050565b60007fd18a373c89f13da742c7ea2eddfc8e3af6c8f3f85dbc0ab370c5a4fa2304e8db600360405180806020018381526020018281038252605581526020018061255b605591396060019250505060405180910390a17fb019756b0b3fad7dcb989f72c9fb009b532528659d912fe268d34dfe339a04a7601c60405180806020018381526020018281038252605581526020018061255b605591396060019250505060405180910390a17f658c89c6444337203fe9b18818d8f1527b98e5daa8fcb20a42484c000aaada30600a60405180806020018381526020018281038252605581526020018061255b605591396060019250505060405180910390a160008090505b600180549050811015611e63577fb019756b0b3fad7dcb989f72c9fb009b532528659d912fe268d34dfe339a04a7601d60405180806020018381526020018281038252605581526020018061255b605591396060019250505060405180910390a17f658c89c6444337203fe9b18818d8f1527b98e5daa8fcb20a42484c000aaada30600b60405180806020018381526020018281038252605581526020018061255b605591396060019250505060405180910390a18273ffffffffffffffffffffffffffffffffffffffff1660018281548110611ca357fe5b9060005260206000200160009054906101000a900473ffffffffffffffffffffffffffffffffffffffff1673ffffffffffffffffffffffffffffffffffffffff161415611df9577ff338c7cb8a3bed69401ca351cb57d7512e7d162f8de7dc422f9fd2363ee12a3d6003600060405180806020018481526020018381526020018281038252605581526020018061255b60559139606001935050505060405180910390a17fb019756b0b3fad7dcb989f72c9fb009b532528659d912fe268d34dfe339a04a7601e60405180806020018381526020018281038252605581526020018061255b605591396060019250505060405180910390a17f658c89c6444337203fe9b18818d8f1527b98e5daa8fcb20a42484c000aaada30600c60405180806020018381526020018281038252605581526020018061255b605591396060019250505060405180910390a16001915050611f11565b7ff338c7cb8a3bed69401ca351cb57d7512e7d162f8de7dc422f9fd2363ee12a3d6003600160405180806020018481526020018381526020018281038252605581526020018061255b60559139606001935050505060405180910390a18080600101915050611bca565b507fb019756b0b3fad7dcb989f72c9fb009b532528659d912fe268d34dfe339a04a7602160405180806020018381526020018281038252605581526020018061255b605591396060019250505060405180910390a17f658c89c6444337203fe9b18818d8f1527b98e5daa8fcb20a42484c000aaada30600d60405180806020018381526020018281038252605581526020018061255b605591396060019250505060405180910390a1600090505b919050565b7fd18a373c89f13da742c7ea2eddfc8e3af6c8f3f85dbc0ab370c5a4fa2304e8db600160405180806020018381526020018281038252605581526020018061255b605591396060019250505060405180910390a17fb019756b0b3fad7dcb989f72c9fb009b532528659d912fe268d34dfe339a04a7600960405180806020018381526020018281038252605581526020018061255b605591396060019250505060405180910390a17f658c89c6444337203fe9b18818d8f1527b98e5daa8fcb20a42484c000aaada30600160405180806020018381526020018281038252605581526020018061255b605591396060019250505060405180910390a160008090505b6001805490508110156124bd577fb019756b0b3fad7dcb989f72c9fb009b532528659d912fe268d34dfe339a04a7600a60405180806020018381526020018281038252605581526020018061255b605591396060019250505060405180910390a17f658c89c6444337203fe9b18818d8f1527b98e5daa8fcb20a42484c000aaada30600260405180806020018381526020018281038252605581526020018061255b605591396060019250505060405180910390a16000600182815481106120dc57fe5b9060005260206000200160009054906101000a900473ffffffffffffffffffffffffffffffffffffffff1690507fb019756b0b3fad7dcb989f72c9fb009b532528659d912fe268d34dfe339a04a7600b60405180806020018381526020018281038252605581526020018061255b605591396060019250505060405180910390a17f658c89c6444337203fe9b18818d8f1527b98e5daa8fcb20a42484c000aaada30600360405180806020018381526020018281038252605581526020018061255b605591396060019250505060405180910390a16000600260008373ffffffffffffffffffffffffffffffffffffffff1673ffffffffffffffffffffffffffffffffffffffff1681526020019081526020016000205490507fb019756b0b3fad7dcb989f72c9fb009b532528659d912fe268d34dfe339a04a7600d60405180806020018381526020018281038252605581526020018061255b605591396060019250505060405180910390a17f658c89c6444337203fe9b18818d8f1527b98e5daa8fcb20a42484c000aaada30600460405180806020018381526020018281038252605581526020018061255b605591396060019250505060405180910390a160026000600360009054906101000a900473ffffffffffffffffffffffffffffffffffffffff1673ffffffffffffffffffffffffffffffffffffffff1673ffffffffffffffffffffffffffffffffffffffff16815260200190815260200160002054811115612451577ff338c7cb8a3bed69401ca351cb57d7512e7d162f8de7dc422f9fd2363ee12a3d6001600060405180806020018481526020018381526020018281038252605581526020018061255b60559139606001935050505060405180910390a17fb019756b0b3fad7dcb989f72c9fb009b532528659d912fe268d34dfe339a04a7600e60405180806020018381526020018281038252605581526020018061255b605591396060019250505060405180910390a17f658c89c6444337203fe9b18818d8f1527b98e5daa8fcb20a42484c000aaada30600560405180806020018381526020018281038252605581526020018061255b605591396060019250505060405180910390a181600360006101000a81548173ffffffffffffffffffffffffffffffffffffffff021916908373ffffffffffffffffffffffffffffffffffffffff1602179055506124ae565b7ff338c7cb8a3bed69401ca351cb57d7512e7d162f8de7dc422f9fd2363ee12a3d60018060405180806020018481526020018381526020018281038252605581526020018061255b60559139606001935050505060405180910390a15b50508080600101915050612018565b5056fe2f55736572732f6a657272796c65652f446f63756d656e74732f4a657272794c65652f626c6f636b636861696e2f686f6d65776f726b5f313031342f636f6e7472616374732f47616d626c652e736f6c4f776e61626c653a206e6577206f776e657220697320746865207a65726f206164647265737349276d20706f6f722e2043616e6e6f7420706c6179207769746820796f752120427965212f55736572732f6a657272796c65652f446f63756d656e74732f4a657272794c65652f626c6f636b636861696e2f686f6d65776f726b5f313031342f636f6e7472616374732f4c6561646572626f6172642e736f6ca165627a7a72305820d0c72590c8e87f3c8baf315bc1c066ea9c86f1506ec1c17af36c45533c4c5d1300292f55736572732f6a657272796c65652f446f63756d656e74732f4a657272794c65652f626c6f636b636861696e2f686f6d65776f726b5f313031342f636f6e7472616374732f47616d626c652e736f6c",
  "source": "pragma solidity >=0.4.21 <0.6.0;\n\nimport \"../node_modules/@openzeppelin/contracts/ownership/Ownable.sol\";\nimport \"./Leaderboard.sol\";\n\ncontract Gamble is Ownable, Leaderboard {event __CoverageGamble(string fileName, uint256 lineNumber);\nevent __FunctionCoverageGamble(string fileName, uint256 fnId);\nevent __StatementCoverageGamble(string fileName, uint256 statementId);\nevent __BranchCoverageGamble(string fileName, uint256 branchId, uint256 locationIdx);\nevent __AssertPreCoverageGamble(string fileName, uint256 branchId);\nevent __AssertPostCoverageGamble(string fileName, uint256 branchId);\n\n    uint public returnRate;\n\n    event win(address indexed add, uint amount);\n    event lost(address indexed add, uint amount);\n\n    constructor() public Ownable() {emit __FunctionCoverageGamble('/Users/jerrylee/Documents/JerryLee/blockchain/homework_1014/contracts/Gamble.sol',1);\n\nemit __CoverageGamble('/Users/jerrylee/Documents/JerryLee/blockchain/homework_1014/contracts/Gamble.sol',13);\n        emit __StatementCoverageGamble('/Users/jerrylee/Documents/JerryLee/blockchain/homework_1014/contracts/Gamble.sol',1);\nreturnRate = 20;\n    }\n\n    function() external payable {emit __FunctionCoverageGamble('/Users/jerrylee/Documents/JerryLee/blockchain/homework_1014/contracts/Gamble.sol',2);\n }\n\n    function getBalance() public      returns(uint) {emit __FunctionCoverageGamble('/Users/jerrylee/Documents/JerryLee/blockchain/homework_1014/contracts/Gamble.sol',3);\n\nemit __CoverageGamble('/Users/jerrylee/Documents/JerryLee/blockchain/homework_1014/contracts/Gamble.sol',19);\n        emit __StatementCoverageGamble('/Users/jerrylee/Documents/JerryLee/blockchain/homework_1014/contracts/Gamble.sol',2);\nreturn address(this).balance;\n    }\n\n    function setReturnRate(uint _returnRate) public onlyOwner {emit __FunctionCoverageGamble('/Users/jerrylee/Documents/JerryLee/blockchain/homework_1014/contracts/Gamble.sol',4);\n\nemit __CoverageGamble('/Users/jerrylee/Documents/JerryLee/blockchain/homework_1014/contracts/Gamble.sol',23);\n        emit __StatementCoverageGamble('/Users/jerrylee/Documents/JerryLee/blockchain/homework_1014/contracts/Gamble.sol',3);\nreturnRate = _returnRate;\n    }\n\n    function wannaPlayAGame() public payable {emit __FunctionCoverageGamble('/Users/jerrylee/Documents/JerryLee/blockchain/homework_1014/contracts/Gamble.sol',5);\n\nemit __CoverageGamble('/Users/jerrylee/Documents/JerryLee/blockchain/homework_1014/contracts/Gamble.sol',27);\n        emit __StatementCoverageGamble('/Users/jerrylee/Documents/JerryLee/blockchain/homework_1014/contracts/Gamble.sol',4);\nuint playerMaxReward = msg.value / 10 * returnRate;\nemit __CoverageGamble('/Users/jerrylee/Documents/JerryLee/blockchain/homework_1014/contracts/Gamble.sol',28);\n        emit __AssertPreCoverageGamble('/Users/jerrylee/Documents/JerryLee/blockchain/homework_1014/contracts/Gamble.sol',1);\nemit __StatementCoverageGamble('/Users/jerrylee/Documents/JerryLee/blockchain/homework_1014/contracts/Gamble.sol',5);\nrequire(address(this).balance > playerMaxReward, \"I'm poor. Cannot play with you! Bye!\");emit __AssertPostCoverageGamble('/Users/jerrylee/Documents/JerryLee/blockchain/homework_1014/contracts/Gamble.sol',1);\n\nemit __CoverageGamble('/Users/jerrylee/Documents/JerryLee/blockchain/homework_1014/contracts/Gamble.sol',29);\n        emit __AssertPreCoverageGamble('/Users/jerrylee/Documents/JerryLee/blockchain/homework_1014/contracts/Gamble.sol',2);\nemit __StatementCoverageGamble('/Users/jerrylee/Documents/JerryLee/blockchain/homework_1014/contracts/Gamble.sol',6);\nrequire(msg.value >= 2 ether, \"I don't play with the poor! Bye!\");emit __AssertPostCoverageGamble('/Users/jerrylee/Documents/JerryLee/blockchain/homework_1014/contracts/Gamble.sol',2);\n\n\nemit __CoverageGamble('/Users/jerrylee/Documents/JerryLee/blockchain/homework_1014/contracts/Gamble.sol',31);\n        emit __StatementCoverageGamble('/Users/jerrylee/Documents/JerryLee/blockchain/homework_1014/contracts/Gamble.sol',7);\nif (isBankerWin()) {emit __BranchCoverageGamble('/Users/jerrylee/Documents/JerryLee/blockchain/homework_1014/contracts/Gamble.sol',3,0);\nemit __CoverageGamble('/Users/jerrylee/Documents/JerryLee/blockchain/homework_1014/contracts/Gamble.sol',32);\n            emit __StatementCoverageGamble('/Users/jerrylee/Documents/JerryLee/blockchain/homework_1014/contracts/Gamble.sol',8);\nenterLeaderBoard(msg.sender, playerMaxReward);\nemit __CoverageGamble('/Users/jerrylee/Documents/JerryLee/blockchain/homework_1014/contracts/Gamble.sol',33);\n            emit __StatementCoverageGamble('/Users/jerrylee/Documents/JerryLee/blockchain/homework_1014/contracts/Gamble.sol',9);\nmsg.sender.transfer(playerMaxReward);\nemit __CoverageGamble('/Users/jerrylee/Documents/JerryLee/blockchain/homework_1014/contracts/Gamble.sol',34);\n            emit __StatementCoverageGamble('/Users/jerrylee/Documents/JerryLee/blockchain/homework_1014/contracts/Gamble.sol',10);\nemit win(msg.sender, playerMaxReward);\n        } else {emit __BranchCoverageGamble('/Users/jerrylee/Documents/JerryLee/blockchain/homework_1014/contracts/Gamble.sol',3,1);\nemit __CoverageGamble('/Users/jerrylee/Documents/JerryLee/blockchain/homework_1014/contracts/Gamble.sol',36);\n            emit __StatementCoverageGamble('/Users/jerrylee/Documents/JerryLee/blockchain/homework_1014/contracts/Gamble.sol',11);\nemit lost(msg.sender, playerMaxReward);\n        }\n    }\n\n    function isBankerWin() internal      returns(bool) {emit __FunctionCoverageGamble('/Users/jerrylee/Documents/JerryLee/blockchain/homework_1014/contracts/Gamble.sol',6);\n\nemit __CoverageGamble('/Users/jerrylee/Documents/JerryLee/blockchain/homework_1014/contracts/Gamble.sol',41);\n        emit __StatementCoverageGamble('/Users/jerrylee/Documents/JerryLee/blockchain/homework_1014/contracts/Gamble.sol',12);\nreturn (block.timestamp % 2 == 0) ? true : false;\n    }\n\n    function getETH() public onlyOwner {emit __FunctionCoverageGamble('/Users/jerrylee/Documents/JerryLee/blockchain/homework_1014/contracts/Gamble.sol',7);\n\nemit __CoverageGamble('/Users/jerrylee/Documents/JerryLee/blockchain/homework_1014/contracts/Gamble.sol',45);\n        emit __StatementCoverageGamble('/Users/jerrylee/Documents/JerryLee/blockchain/homework_1014/contracts/Gamble.sol',13);\nmsg.sender.transfer(address(this).balance);\n    }\n}",
  "sourcePath": "/Users/jerrylee/Documents/JerryLee/blockchain/homework_1014/coverageEnv/contracts/Gamble.sol",
  "compiler": {
    "name": "solc",
    "version": "0.5.8+commit.23d335f2.Emscripten.clang"
  },
  "schemaVersion": "3.0.16",
  "updatedAt": "2019-10-18T19:41:18.244Z",
  "devdoc": {
    "methods": {
      "isOwner()": {
        "details": "Returns true if the caller is the current owner."
      },
      "owner()": {
        "details": "Returns the address of the current owner."
      },
      "renounceOwnership()": {
        "details": "Leaves the contract without owner. It will not be possible to call `onlyOwner` functions anymore. Can only be called by the current owner.     * > Note: Renouncing ownership will leave the contract without an owner, thereby removing any functionality that is only available to the owner."
      },
      "transferOwnership(address)": {
        "details": "Transfers ownership of the contract to a new account (`newOwner`). Can only be called by the current owner."
      }
    }
  },
  "userdoc": {
    "methods": {}
  }
}