{
  "contractName": "Gamble",
  "abi": [
    {
      "constant": true,
      "inputs": [
        {
          "name": "",
          "type": "address"
        }
      ],
      "name": "player_ETH",
      "outputs": [
        {
          "name": "",
          "type": "uint256"
        }
      ],
      "payable": false,
      "stateMutability": "view",
      "type": "function"
    },
    {
      "constant": false,
      "inputs": [],
      "name": "renounceOwnership",
      "outputs": [],
      "payable": false,
      "stateMutability": "nonpayable",
      "type": "function"
    },
    {
      "constant": true,
      "inputs": [],
      "name": "returnRate",
      "outputs": [
        {
          "name": "",
          "type": "uint256"
        }
      ],
      "payable": false,
      "stateMutability": "view",
      "type": "function"
    },
    {
      "constant": true,
      "inputs": [],
      "name": "owner",
      "outputs": [
        {
          "name": "",
          "type": "address"
        }
      ],
      "payable": false,
      "stateMutability": "view",
      "type": "function"
    },
    {
      "constant": true,
      "inputs": [],
      "name": "isOwner",
      "outputs": [
        {
          "name": "",
          "type": "bool"
        }
      ],
      "payable": false,
      "stateMutability": "view",
      "type": "function"
    },
    {
      "constant": true,
      "inputs": [],
      "name": "firstPlacePlayer",
      "outputs": [
        {
          "name": "",
          "type": "address"
        }
      ],
      "payable": false,
      "stateMutability": "view",
      "type": "function"
    },
    {
      "constant": false,
      "inputs": [
        {
          "name": "newOwner",
          "type": "address"
        }
      ],
      "name": "transferOwnership",
      "outputs": [],
      "payable": false,
      "stateMutability": "nonpayable",
      "type": "function"
    },
    {
      "inputs": [],
      "payable": false,
      "stateMutability": "nonpayable",
      "type": "constructor"
    },
    {
      "payable": true,
      "stateMutability": "payable",
      "type": "fallback"
    },
    {
      "anonymous": false,
      "inputs": [
        {
          "indexed": true,
          "name": "add",
          "type": "address"
        },
        {
          "indexed": false,
          "name": "amount",
          "type": "uint256"
        }
      ],
      "name": "win",
      "type": "event"
    },
    {
      "anonymous": false,
      "inputs": [
        {
          "indexed": true,
          "name": "add",
          "type": "address"
        },
        {
          "indexed": false,
          "name": "amount",
          "type": "uint256"
        }
      ],
      "name": "lost",
      "type": "event"
    },
    {
      "anonymous": false,
      "inputs": [
        {
          "indexed": true,
          "name": "previousOwner",
          "type": "address"
        },
        {
          "indexed": true,
          "name": "newOwner",
          "type": "address"
        }
      ],
      "name": "OwnershipTransferred",
      "type": "event"
    },
    {
      "constant": true,
      "inputs": [],
      "name": "getBalance",
      "outputs": [
        {
          "name": "",
          "type": "uint256"
        }
      ],
      "payable": false,
      "stateMutability": "view",
      "type": "function"
    },
    {
      "constant": false,
      "inputs": [
        {
          "name": "_returnRate",
          "type": "uint256"
        }
      ],
      "name": "setReturnRate",
      "outputs": [],
      "payable": false,
      "stateMutability": "nonpayable",
      "type": "function"
    },
    {
      "constant": false,
      "inputs": [],
      "name": "wannaPlayAGame",
      "outputs": [],
      "payable": true,
      "stateMutability": "payable",
      "type": "function"
    },
    {
      "constant": false,
      "inputs": [
        {
          "name": "amount",
          "type": "uint256"
        }
      ],
      "name": "getETH",
      "outputs": [],
      "payable": false,
      "stateMutability": "nonpayable",
      "type": "function"
    }
  ],
  "bytecode": "0x60806040526000600360006101000a81548173ffffffffffffffffffffffffffffffffffffffff021916908373ffffffffffffffffffffffffffffffffffffffff16021790555034801561005257600080fd5b50336000806101000a81548173ffffffffffffffffffffffffffffffffffffffff021916908373ffffffffffffffffffffffffffffffffffffffff1602179055506000809054906101000a900473ffffffffffffffffffffffffffffffffffffffff1673ffffffffffffffffffffffffffffffffffffffff16600073ffffffffffffffffffffffffffffffffffffffff167f8be0079c531659141344cd1fd0a4f28419497f9722a3daafe3b4186f6b6457e060405160405180910390a36014600481905550610e3a806101266000396000f3fe60806040526004361061009c5760003560e01c8063715018a611610064578063715018a6146101ae5780637c2ffbb3146101c55780638da5cb5b146101f05780638f32d59b14610247578063ca55567814610276578063f2fde38b146102cd5761009c565b806312065fe01461009e5780632835b45c146100c95780632f9999e714610104578063616329c81461013f578063705f613d146101a4575b005b3480156100aa57600080fd5b506100b361031e565b6040518082815260200191505060405180910390f35b3480156100d557600080fd5b50610102600480360360208110156100ec57600080fd5b810190808035906020019092919050505061033d565b005b34801561011057600080fd5b5061013d6004803603602081101561012757600080fd5b8101908080359060200190929190505050610470565b005b34801561014b57600080fd5b5061018e6004803603602081101561016257600080fd5b81019080803573ffffffffffffffffffffffffffffffffffffffff1690602001909291905050506104f4565b6040518082815260200191505060405180910390f35b6101ac61050c565b005b3480156101ba57600080fd5b506101c361070f565b005b3480156101d157600080fd5b506101da610848565b6040518082815260200191505060405180910390f35b3480156101fc57600080fd5b5061020561084e565b604051808273ffffffffffffffffffffffffffffffffffffffff1673ffffffffffffffffffffffffffffffffffffffff16815260200191505060405180910390f35b34801561025357600080fd5b5061025c610877565b604051808215151515815260200191505060405180910390f35b34801561028257600080fd5b5061028b6108ce565b604051808273ffffffffffffffffffffffffffffffffffffffff1673ffffffffffffffffffffffffffffffffffffffff16815260200191505060405180910390f35b3480156102d957600080fd5b5061031c600480360360208110156102f057600080fd5b81019080803573ffffffffffffffffffffffffffffffffffffffff1690602001909291905050506108f4565b005b60003073ffffffffffffffffffffffffffffffffffffffff1631905090565b610345610877565b6103b7576040517f08c379a00000000000000000000000000000000000000000000000000000000081526004018080602001828103825260208152602001807f4f776e61626c653a2063616c6c6572206973206e6f7420746865206f776e657281525060200191505060405180910390fd5b803073ffffffffffffffffffffffffffffffffffffffff163111610426576040517f08c379a0000000000000000000000000000000000000000000000000000000008152600401808060200182810382526025815260200180610dea6025913960400191505060405180910390fd5b3373ffffffffffffffffffffffffffffffffffffffff166108fc829081150290604051600060405180830381858888f1935050505015801561046c573d6000803e3d6000fd5b5050565b610478610877565b6104ea576040517f08c379a00000000000000000000000000000000000000000000000000000000081526004018080602001828103825260208152602001807f4f776e61626c653a2063616c6c6572206973206e6f7420746865206f776e657281525060200191505060405180910390fd5b8060048190555050565b60026020528060005260406000206000915090505481565b6000600454600a348161051b57fe5b04029050803073ffffffffffffffffffffffffffffffffffffffff16311161058e576040517f08c379a0000000000000000000000000000000000000000000000000000000008152600401808060200182810382526024815260200180610dc66024913960400191505060405180910390fd5b671bc16d674ec8000034101561060c576040517f08c379a00000000000000000000000000000000000000000000000000000000081526004018080602001828103825260208152602001807f4920646f6e277420706c617920776974682074686520706f6f7221204279652181525060200191505060405180910390fd5b61061461097a565b156106bd57610623338261099c565b3373ffffffffffffffffffffffffffffffffffffffff166108fc829081150290604051600060405180830381858888f19350505050158015610669573d6000803e3d6000fd5b503373ffffffffffffffffffffffffffffffffffffffff167fee6ab4a69c0c10149c7f1824119194692e8d5331b15fea821af9940fb60944be826040518082815260200191505060405180910390a261070c565b3373ffffffffffffffffffffffffffffffffffffffff167f6d553dd1ad18661af9fbf74413b77042a5f759fb0f6eed540eec9852cf7b1deb826040518082815260200191505060405180910390a25b50565b610717610877565b610789576040517f08c379a00000000000000000000000000000000000000000000000000000000081526004018080602001828103825260208152602001807f4f776e61626c653a2063616c6c6572206973206e6f7420746865206f776e657281525060200191505060405180910390fd5b600073ffffffffffffffffffffffffffffffffffffffff166000809054906101000a900473ffffffffffffffffffffffffffffffffffffffff1673ffffffffffffffffffffffffffffffffffffffff167f8be0079c531659141344cd1fd0a4f28419497f9722a3daafe3b4186f6b6457e060405160405180910390a360008060006101000a81548173ffffffffffffffffffffffffffffffffffffffff021916908373ffffffffffffffffffffffffffffffffffffffff160217905550565b60045481565b60008060009054906101000a900473ffffffffffffffffffffffffffffffffffffffff16905090565b60008060009054906101000a900473ffffffffffffffffffffffffffffffffffffffff1673ffffffffffffffffffffffffffffffffffffffff163373ffffffffffffffffffffffffffffffffffffffff1614905090565b600360009054906101000a900473ffffffffffffffffffffffffffffffffffffffff1681565b6108fc610877565b61096e576040517f08c379a00000000000000000000000000000000000000000000000000000000081526004018080602001828103825260208152602001807f4f776e61626c653a2063616c6c6572206973206e6f7420746865206f776e657281525060200191505060405180910390fd5b61097781610a69565b50565b6000806002428161098757fe5b0614610994576000610997565b60015b905090565b6109a582610bad565b610a105760018290806001815401808255809150509060018203906000526020600020016000909192909190916101000a81548173ffffffffffffffffffffffffffffffffffffffff021916908373ffffffffffffffffffffffffffffffffffffffff160217905550505b80600260008473ffffffffffffffffffffffffffffffffffffffff1673ffffffffffffffffffffffffffffffffffffffff16815260200190815260200160002060008282540192505081905550610a65610c4f565b5050565b600073ffffffffffffffffffffffffffffffffffffffff168173ffffffffffffffffffffffffffffffffffffffff161415610aef576040517f08c379a0000000000000000000000000000000000000000000000000000000008152600401808060200182810382526026815260200180610da06026913960400191505060405180910390fd5b8073ffffffffffffffffffffffffffffffffffffffff166000809054906101000a900473ffffffffffffffffffffffffffffffffffffffff1673ffffffffffffffffffffffffffffffffffffffff167f8be0079c531659141344cd1fd0a4f28419497f9722a3daafe3b4186f6b6457e060405160405180910390a3806000806101000a81548173ffffffffffffffffffffffffffffffffffffffff021916908373ffffffffffffffffffffffffffffffffffffffff16021790555050565b600080600090505b600180549050811015610c44578273ffffffffffffffffffffffffffffffffffffffff1660018281548110610be657fe5b9060005260206000200160009054906101000a900473ffffffffffffffffffffffffffffffffffffffff1673ffffffffffffffffffffffffffffffffffffffff161415610c37576001915050610c4a565b8080600101915050610bb5565b50600090505b919050565b60008090505b600180549050811015610d9c57600060018281548110610c7157fe5b9060005260206000200160009054906101000a900473ffffffffffffffffffffffffffffffffffffffff1690506000600260008373ffffffffffffffffffffffffffffffffffffffff1673ffffffffffffffffffffffffffffffffffffffff16815260200190815260200160002054905060026000600360009054906101000a900473ffffffffffffffffffffffffffffffffffffffff1673ffffffffffffffffffffffffffffffffffffffff1673ffffffffffffffffffffffffffffffffffffffff16815260200190815260200160002054811115610d8d5781600360006101000a81548173ffffffffffffffffffffffffffffffffffffffff021916908373ffffffffffffffffffffffffffffffffffffffff1602179055505b50508080600101915050610c55565b5056fe4f776e61626c653a206e6577206f776e657220697320746865207a65726f206164647265737349276d20706f6f722e2043616e6e6f7420706c6179207769746820796f7521204279652154686520636f6e747261637420646f65736e2774206861766520656e6f756768204554482ea165627a7a72305820f365efbb50fa326d0a180eaab6e7e3fdf68b3b8c03df6c1860b27e230a4372610029",
  "source": "pragma solidity >=0.4.21 <0.6.0;\n\nimport \"../node_modules/@openzeppelin/contracts/ownership/Ownable.sol\";\nimport \"./Leaderboard.sol\";\n\ncontract Gamble is Ownable, Leaderboard {\n    uint public returnRate;\n\n    event win(address indexed add, uint amount);\n    event lost(address indexed add, uint amount);\n\n    constructor() public Ownable() {\n        returnRate = 20;\n    }\n\n    function() external payable { }\n\n    function getBalance() public view returns(uint) {\n        return address(this).balance;\n    }\n\n    function setReturnRate(uint _returnRate) public onlyOwner {\n        returnRate = _returnRate;\n    }\n\n    function wannaPlayAGame() public payable {\n        uint playerMaxReward = msg.value / 10 * returnRate;\n        require(address(this).balance > playerMaxReward, \"I'm poor. Cannot play with you! Bye!\");\n        require(msg.value >= 2 ether, \"I don't play with the poor! Bye!\");\n\n        if (isBankerWin()) {\n            enterLeaderBoard(msg.sender, playerMaxReward);\n            msg.sender.transfer(playerMaxReward);\n            emit win(msg.sender, playerMaxReward);\n        } else {\n            emit lost(msg.sender, playerMaxReward);\n        }\n    }\n\n    function isBankerWin() internal view returns(bool) {\n        return (block.timestamp % 2 == 0) ? true : false;\n    }\n\n    function getETH(uint amount) public onlyOwner {\n        require(address(this).balance > amount, \"The contract doesn't have enough ETH.\");\n        msg.sender.transfer(amount);\n    }\n}",
  "sourcePath": "/Users/jerrylee/Documents/JerryLee/blockchain/homework_1014/contracts/Gamble.sol",
  "compiler": {
    "name": "solc",
    "version": "0.5.8+commit.23d335f2.Emscripten.clang"
  },
  "schemaVersion": "3.0.16",
  "updatedAt": "2019-10-20T02:28:21.342Z",
  "devdoc": {
    "methods": {
      "isOwner()": {
        "details": "Returns true if the caller is the current owner."
      },
      "owner()": {
        "details": "Returns the address of the current owner."
      },
      "renounceOwnership()": {
        "details": "Leaves the contract without owner. It will not be possible to call `onlyOwner` functions anymore. Can only be called by the current owner.     * > Note: Renouncing ownership will leave the contract without an owner, thereby removing any functionality that is only available to the owner."
      },
      "transferOwnership(address)": {
        "details": "Transfers ownership of the contract to a new account (`newOwner`). Can only be called by the current owner."
      }
    }
  },
  "userdoc": {
    "methods": {}
  }
}