{
  "contractName": "Gamble",
  "abi": [
    {
      "constant": false,
      "inputs": [],
      "name": "renounceOwnership",
      "outputs": [],
      "payable": false,
      "stateMutability": "nonpayable",
      "type": "function"
    },
    {
      "constant": true,
      "inputs": [],
      "name": "returnRate",
      "outputs": [
        {
          "name": "",
          "type": "uint256"
        }
      ],
      "payable": false,
      "stateMutability": "view",
      "type": "function"
    },
    {
      "constant": true,
      "inputs": [],
      "name": "owner",
      "outputs": [
        {
          "name": "",
          "type": "address"
        }
      ],
      "payable": false,
      "stateMutability": "view",
      "type": "function"
    },
    {
      "constant": true,
      "inputs": [],
      "name": "isOwner",
      "outputs": [
        {
          "name": "",
          "type": "bool"
        }
      ],
      "payable": false,
      "stateMutability": "view",
      "type": "function"
    },
    {
      "constant": true,
      "inputs": [],
      "name": "getFirstPlase",
      "outputs": [
        {
          "name": "",
          "type": "address"
        }
      ],
      "payable": false,
      "stateMutability": "view",
      "type": "function"
    },
    {
      "constant": false,
      "inputs": [
        {
          "name": "newOwner",
          "type": "address"
        }
      ],
      "name": "transferOwnership",
      "outputs": [],
      "payable": false,
      "stateMutability": "nonpayable",
      "type": "function"
    },
    {
      "inputs": [],
      "payable": false,
      "stateMutability": "nonpayable",
      "type": "constructor"
    },
    {
      "payable": true,
      "stateMutability": "payable",
      "type": "fallback"
    },
    {
      "anonymous": false,
      "inputs": [
        {
          "indexed": true,
          "name": "add",
          "type": "address"
        },
        {
          "indexed": false,
          "name": "amount",
          "type": "uint256"
        }
      ],
      "name": "win",
      "type": "event"
    },
    {
      "anonymous": false,
      "inputs": [
        {
          "indexed": true,
          "name": "add",
          "type": "address"
        },
        {
          "indexed": false,
          "name": "amount",
          "type": "uint256"
        }
      ],
      "name": "lost",
      "type": "event"
    },
    {
      "anonymous": false,
      "inputs": [
        {
          "indexed": true,
          "name": "previousOwner",
          "type": "address"
        },
        {
          "indexed": true,
          "name": "newOwner",
          "type": "address"
        }
      ],
      "name": "OwnershipTransferred",
      "type": "event"
    },
    {
      "constant": true,
      "inputs": [],
      "name": "getBalance",
      "outputs": [
        {
          "name": "",
          "type": "uint256"
        }
      ],
      "payable": false,
      "stateMutability": "view",
      "type": "function"
    },
    {
      "constant": false,
      "inputs": [
        {
          "name": "_returnRate",
          "type": "uint256"
        }
      ],
      "name": "setReturnRate",
      "outputs": [],
      "payable": false,
      "stateMutability": "nonpayable",
      "type": "function"
    },
    {
      "constant": false,
      "inputs": [],
      "name": "wannaPlayAGame",
      "outputs": [],
      "payable": true,
      "stateMutability": "payable",
      "type": "function"
    }
  ],
  "bytecode": "0x608060405234801561001057600080fd5b50336000806101000a81548173ffffffffffffffffffffffffffffffffffffffff021916908373ffffffffffffffffffffffffffffffffffffffff1602179055506000809054906101000a900473ffffffffffffffffffffffffffffffffffffffff1673ffffffffffffffffffffffffffffffffffffffff16600073ffffffffffffffffffffffffffffffffffffffff167f8be0079c531659141344cd1fd0a4f28419497f9722a3daafe3b4186f6b6457e060405160405180910390a36014600381905550610b8f806100e46000396000f3fe6080604052600436106100865760003560e01c80637c2ffbb3116100595780637c2ffbb31461010f5780638da5cb5b1461013a5780638f32d59b14610191578063998e5054146101c0578063f2fde38b1461021757610086565b806312065fe0146100885780632f9999e7146100b3578063705f613d146100ee578063715018a6146100f8575b005b34801561009457600080fd5b5061009d610268565b6040518082815260200191505060405180910390f35b3480156100bf57600080fd5b506100ec600480360360208110156100d657600080fd5b8101908080359060200190929190505050610287565b005b6100f661030b565b005b34801561010457600080fd5b5061010d61050e565b005b34801561011b57600080fd5b50610124610647565b6040518082815260200191505060405180910390f35b34801561014657600080fd5b5061014f61064d565b604051808273ffffffffffffffffffffffffffffffffffffffff1673ffffffffffffffffffffffffffffffffffffffff16815260200191505060405180910390f35b34801561019d57600080fd5b506101a6610676565b604051808215151515815260200191505060405180910390f35b3480156101cc57600080fd5b506101d56106cd565b604051808273ffffffffffffffffffffffffffffffffffffffff1673ffffffffffffffffffffffffffffffffffffffff16815260200191505060405180910390f35b34801561022357600080fd5b506102666004803603602081101561023a57600080fd5b81019080803573ffffffffffffffffffffffffffffffffffffffff1690602001909291905050506107c6565b005b60003073ffffffffffffffffffffffffffffffffffffffff1631905090565b61028f610676565b610301576040517f08c379a00000000000000000000000000000000000000000000000000000000081526004018080602001828103825260208152602001807f4f776e61626c653a2063616c6c6572206973206e6f7420746865206f776e657281525060200191505060405180910390fd5b8060038190555050565b6000600354600a348161031a57fe5b04029050803073ffffffffffffffffffffffffffffffffffffffff16311161038d576040517f08c379a0000000000000000000000000000000000000000000000000000000008152600401808060200182810382526024815260200180610b406024913960400191505060405180910390fd5b671bc16d674ec8000034101561040b576040517f08c379a00000000000000000000000000000000000000000000000000000000081526004018080602001828103825260208152602001807f4920646f6e277420706c617920776974682074686520706f6f7221204279652181525060200191505060405180910390fd5b61041361084c565b156104bc57610422338261086e565b3373ffffffffffffffffffffffffffffffffffffffff166108fc829081150290604051600060405180830381858888f19350505050158015610468573d6000803e3d6000fd5b503373ffffffffffffffffffffffffffffffffffffffff167fee6ab4a69c0c10149c7f1824119194692e8d5331b15fea821af9940fb60944be826040518082815260200191505060405180910390a261050b565b3373ffffffffffffffffffffffffffffffffffffffff167f6d553dd1ad18661af9fbf74413b77042a5f759fb0f6eed540eec9852cf7b1deb826040518082815260200191505060405180910390a25b50565b610516610676565b610588576040517f08c379a00000000000000000000000000000000000000000000000000000000081526004018080602001828103825260208152602001807f4f776e61626c653a2063616c6c6572206973206e6f7420746865206f776e657281525060200191505060405180910390fd5b600073ffffffffffffffffffffffffffffffffffffffff166000809054906101000a900473ffffffffffffffffffffffffffffffffffffffff1673ffffffffffffffffffffffffffffffffffffffff167f8be0079c531659141344cd1fd0a4f28419497f9722a3daafe3b4186f6b6457e060405160405180910390a360008060006101000a81548173ffffffffffffffffffffffffffffffffffffffff021916908373ffffffffffffffffffffffffffffffffffffffff160217905550565b60035481565b60008060009054906101000a900473ffffffffffffffffffffffffffffffffffffffff16905090565b60008060009054906101000a900473ffffffffffffffffffffffffffffffffffffffff1673ffffffffffffffffffffffffffffffffffffffff163373ffffffffffffffffffffffffffffffffffffffff1614905090565b6000806000905060008090505b6001805490508110156107c1576000600182815481106106f657fe5b9060005260206000200160009054906101000a900473ffffffffffffffffffffffffffffffffffffffff1690506000600260008373ffffffffffffffffffffffffffffffffffffffff1673ffffffffffffffffffffffffffffffffffffffff168152602001908152602001600020549050600260008573ffffffffffffffffffffffffffffffffffffffff1673ffffffffffffffffffffffffffffffffffffffff168152602001908152602001600020548111156107b2578193505b505080806001019150506106da565b505090565b6107ce610676565b610840576040517f08c379a00000000000000000000000000000000000000000000000000000000081526004018080602001828103825260208152602001807f4f776e61626c653a2063616c6c6572206973206e6f7420746865206f776e657281525060200191505060405180910390fd5b61084981610933565b50565b6000806002428161085957fe5b0614610866576000610869565b60015b905090565b61087782610a77565b6108e25760018290806001815401808255809150509060018203906000526020600020016000909192909190916101000a81548173ffffffffffffffffffffffffffffffffffffffff021916908373ffffffffffffffffffffffffffffffffffffffff160217905550505b80600260008473ffffffffffffffffffffffffffffffffffffffff1673ffffffffffffffffffffffffffffffffffffffff168152602001908152602001600020600082825401925050819055505050565b600073ffffffffffffffffffffffffffffffffffffffff168173ffffffffffffffffffffffffffffffffffffffff1614156109b9576040517f08c379a0000000000000000000000000000000000000000000000000000000008152600401808060200182810382526026815260200180610b1a6026913960400191505060405180910390fd5b8073ffffffffffffffffffffffffffffffffffffffff166000809054906101000a900473ffffffffffffffffffffffffffffffffffffffff1673ffffffffffffffffffffffffffffffffffffffff167f8be0079c531659141344cd1fd0a4f28419497f9722a3daafe3b4186f6b6457e060405160405180910390a3806000806101000a81548173ffffffffffffffffffffffffffffffffffffffff021916908373ffffffffffffffffffffffffffffffffffffffff16021790555050565b600080600090505b600180549050811015610b0e578273ffffffffffffffffffffffffffffffffffffffff1660018281548110610ab057fe5b9060005260206000200160009054906101000a900473ffffffffffffffffffffffffffffffffffffffff1673ffffffffffffffffffffffffffffffffffffffff161415610b01576001915050610b14565b8080600101915050610a7f565b50600090505b91905056fe4f776e61626c653a206e6577206f776e657220697320746865207a65726f206164647265737349276d20706f6f722e2043616e6e6f7420706c6179207769746820796f75212042796521a165627a7a72305820da106e96d1c1ac2ab0cdc03cbf4196ff74ba1a9af0d1128c2e98b592b13237ec0029",
  "source": "pragma solidity >=0.4.21 <0.6.0;\n\nimport \"../node_modules/@openzeppelin/contracts/ownership/Ownable.sol\";\nimport \"./Leaderboard.sol\";\n\ncontract Gamble is Ownable, Leaderboard {\n    uint public returnRate;\n\n    event win(address indexed add, uint amount);\n    event lost(address indexed add, uint amount);\n\n    constructor() public Ownable() {\n        returnRate = 20;\n    }\n\n    function() external payable { }\n\n    function getBalance() public view returns(uint) {\n        return address(this).balance;\n    }\n\n    function setReturnRate(uint _returnRate) public onlyOwner {\n        returnRate = _returnRate;\n    }\n\n    function wannaPlayAGame() public payable {\n        uint playerMaxReward = msg.value / 10 * returnRate;\n        require(address(this).balance > playerMaxReward, \"I'm poor. Cannot play with you! Bye!\");\n        require(msg.value >= 2 ether, \"I don't play with the poor! Bye!\");\n\n        if (isBankerWin()) {\n            enterLeaderBoard(msg.sender, playerMaxReward);\n            msg.sender.transfer(playerMaxReward);\n            emit win(msg.sender, playerMaxReward);\n        } else {\n            emit lost(msg.sender, playerMaxReward);\n        }\n    }\n\n    function isBankerWin() internal view returns(bool) {\n        return (block.timestamp % 2 == 0) ? true : false;\n    }\n}",
  "sourcePath": "/Users/jerrylee/Documents/JerryLee/blockchain/homework_1014/contracts/Gamble.sol",
  "compiler": {
    "name": "solc",
    "version": "0.5.8+commit.23d335f2.Emscripten.clang"
  },
  "schemaVersion": "3.0.16",
  "updatedAt": "2019-10-17T06:46:42.432Z",
  "devdoc": {
    "methods": {
      "isOwner()": {
        "details": "Returns true if the caller is the current owner."
      },
      "owner()": {
        "details": "Returns the address of the current owner."
      },
      "renounceOwnership()": {
        "details": "Leaves the contract without owner. It will not be possible to call `onlyOwner` functions anymore. Can only be called by the current owner.     * > Note: Renouncing ownership will leave the contract without an owner, thereby removing any functionality that is only available to the owner."
      },
      "transferOwnership(address)": {
        "details": "Transfers ownership of the contract to a new account (`newOwner`). Can only be called by the current owner."
      }
    }
  },
  "userdoc": {
    "methods": {}
  }
}